:100000000C94DA020C9421030C9421030C94210328
:100010000C9421030C9421030C9421030C942103D0
:100020000C9421030C9421030C94C4280C9496295D
:100030000C94E8230C9421030C9421030C942103C9
:100040000C9421030C9421030C9421030C942103A0
:100050000C9421030C9441240C9421030C9421034F
:100060000C9421030C9421030C9421030C94210380
:100070000C9421030C9421030C9421030C94210370
:100080000C9421030C9421030C9421030C94210360
:100090000C9421030C9421030C9421030C94210350
:1000A0000C9421030C9421030C942103480548056A
:1000B0007A057A05C705E50506070607F0058506F2
:1000C00096069606F60606070607FF06A607A60783
:1000D000B807B807AF07B807B807B807A607A60755
:1000E000B407B807B807B407032A2A2A222B2A2AFA
:1000F000222B762A992A222BF02AFF2A29001E0079
:100100001F002000210022002300240025002600DB
:1001100027002D002E00390000002B0014001A00CB
:100120000800150017001C0018000C001200130036
:100130002F00300031004E002A0004001600070096
:1001400009000A000B000D000E000F003300340000
:10015000000028000151E1001D001B0006001900ED
:10016000050011001000360037003800E5000000DF
:1001700052000000E0000000E20000002C00E3005C
:100180002C0000000000E6000000500051004F006D
:100190004B00005C3A003B003C003D003E003F004D
:1001A00040004100420043004400450001000000BF
:1001B0000100010001000100005C010001000100DC
:1001C000010001000100010001004C00C35C0100BE
:1001D000CF5CD05CD15CD25CD35CD45CD55CD65CAB
:1001E0000100010001000000010001000100010008
:1001F00001000100010001000100010001000100F7
:10020000010001000000AE0000000100000001003C
:1002100000000100010001000000000001000000DA
:10022000AC00AD00AB00CE5C1E0F0500047F3F1F8D
:10023000643214643214783C1E1E140A05222325ED
:100240002628292A2C2D2F3032333536383A3B3D9B
:100250003E4042434547494A4C4E505153555759E9
:100260005A5C5E6062646668696B6D6F7173757706
:10027000797B7D7F81838587898A8C8E9092949605
:10028000989A9C9E9FA1A3A5A7A8AAACAEAFB1B314
:10029000B4B6B8B9BBBCBEBFC1C2C3C5C6C7C9CA64
:1002A000CBCCCDCED0D1D2D2D3D4D5D6D7D7D8D926
:1002B000D9DADADBDBDBDCDCDCDCDCDDDDDDDDDC84
:1002C000DCDCDCDCDBDBDBDADAD9D9D8D7D7D6D596
:1002D000D4D3D2D2D1D0CECDCCCBCAC9C7C6C5C358
:1002E000C2C1BFBEBCBBB9B8B6B4B3B1AFAEACAAA5
:1002F000A8A7A5A3A19F9E9C9A98969492908E8C55
:100300008A89878583817F7D7B79777573716F6D2E
:100310006B6968666462605E5C5A59575553515008
:100320004E4C4A4947454342403E3D3B3A383635BC
:100330003332302F2D2C2A292826252322FFAA7F6D
:100340005540000101010101010101010202020207
:10035000020202020203030303030303030404046F
:100360000404040405050505050606060606070738
:1003700007070708080808090909090A0A0A0B0BF0
:100380000B0C0C0C0D0D0D0E0E0E0F0F0F1010118F
:100390001111121213131414151516161717181815
:1003A00019191A1A1B1B1C1D1D1E1E1F202021227D
:1003B00022232424252626272829292A2B2C2D2DC3
:1003C0002E2F30313232333435363738393A3B3CE0
:1003D0003D3E3F404142434445464748494A4C4DD3
:1003E0004E4F50515354555658595A5B5D5E5F619C
:1003F0006264656668696B6C6D6F7072737577782F
:100400007A7B7D7E8082838587888A8C8E8F91938C
:100410009596989A9C9EA0A2A3A5A7A9ABADAFB1B3
:10042000B3B5B7BABCBEC0C2C4C6C9CBCDCFD1D498
:10043000D6D8DBDDDFE2E4E7E9EBEEF0F3F5F8FA3E
:10044000FDFF1C03570049004E00470053002000E9
:1004500048004F0054005300570041005000000076
:100460000A0359004D0044004B0000000403090436
:1004700009023B00020100A0FA0904000001030187
:100480000100092111010001224000070581030834
:10049000000A090401000103000000092111010004
:1004A0000122B6000705820320000A1201000200A3
:1004B0000000084D597549010001020001050109BC
:1004C00002A10185020901A10005091901290815E8
:1004D00000250195087501810205010930093115D2
:1004E00081257F95027508810609381581257F953C
:1004F0000175088106050C0A38021581257F9501D2
:1005000075088106C0C005010980A1018503190194
:100510002AB700150126B700950175108100C005A6
:100520000C0901A101850419012AA002150126A0C8
:1005300002950175108100C005010906A10185051C
:10054000050719E029E715002501950875018102C5
:100550000507190029EF1500250195F075018102A5
:100560000508190129059505750191029501750385
:100570009101C005010906A101050719E029E71548
:100580000025019508750181029501750881010515
:1005900007190029FF150026FF0095067508810040
:1005A0000508190129059505750191029501750345
:1005B0009101C00011241FBECFEFDAE0DEBFCDBF36
:1005C00004B603FE27C08091770590917805A0912D
:1005D0007905B0917A058730904BA740B04BD1F4A4
:1005E00010927705109278051092790510927A058D
:1005F00014BE84B7877F84BF0FB6F894A895809106
:100600006000886180936000109260000FBEE0E09F
:10061000F8E3099511E0A0E0B1E0E0ECF9E502C0F3
:1006200005900D92AE3CB107D9F725E0AEECB1E0F4
:1006300001C01D92A737B207E1F70E94AE130C94D8
:10064000DE2C0C94000081E0089581E008950C9464
:10065000250308950C9429031F93CF93DF9300D0B3
:1006600000D01F92CDB7DEB749835A836B83309198
:10067000D00189819A81311114C0662359F0222357
:1006800049F00E944A09182F682F89819A810E9497
:10069000F30803C00E941E09182F69817A81812FF7
:1006A00004C00E944A0969817A810F900F900F90CF
:1006B0000F900F90DF91CF911F910C94ED0FFC01E3
:1006C000262F408151816281738184810C942C0397
:1006D00081E00895CF93DF93EC0160E00E945F0317
:1006E000BE01DF91CF910C942A030E941D120E943B
:1006F00001040E9401200C945A120C945612089581
:100700000E9494070E947F032FEF84E39CE0215016
:1007100080409040E1F700C000000C9467240F93E4
:100720001F93CF93DF938C0161E00E945F03EC0184
:10073000B8010E942703882309F44BC0B801CE01F9
:100740000E94621F882309F444C0B801CE010E94B0
:10075000AF208823F1F1B801CE010E940121882346
:10076000C1F1B801CE010E943322882391F1B80172
:10077000CE010E94A61D882361F1F80182818823A1
:1007800009F1CB358DE5D807C1F050F4C115FCE572
:10079000DF0781F0CF3DDC45A9F40E94E50E19C0CA
:1007A000CC35EDE5DE0761F0CD35DD4559F40E942D
:1007B000690D08C00E9480030CC00E94720D02C027
:1007C0000E94750DC801DF91CF911F910F910C947C
:1007D000230380E0DF91CF911F910F910895089539
:1007E0000C94EF0381E00895CF93C82F0E94F20389
:1007F000882329F0C1FD02C0479A01C04798CF91D4
:1008000008953F9A479A0895CF93C82F0E94F00306
:100810008C2F0E94F403CF910895CF93DF93CDB72F
:10082000DEB72B970FB6F894DEBF0FBECDBF4F8358
:10083000588769877A878B8761110E94980D9E017E
:100840002F5F3F4F86E0F90111928A95E9F785E025
:10085000FE013796D90101900D928A95E1F78981C1
:100860009A814C815D81452B31F09F3F31F491E0BD
:100870008F3F19F403C091E001C090E090FF09C0E0
:1008800049815A816B817C818D819E810E94980C67
:1008900005C0C9010E9468038111F2CF2B960FB6E3
:1008A000F894DEBF0FBECDBFDF91CF910895FC015C
:1008B000808191810E948C090895CF93882309F447
:1008C00050C0C82F8CEF8C0F813AD0F46C2F8091E0
:1008D0000401909105010E94DF22882349F06C2FCA
:1008E00080910401909105010E946A230E94CA0D23
:1008F0006C2F80910401909105010E945F230CC030
:1009000080E28C0F883058F4C77081E001C0880FF6
:10091000CA95EAF70E947B0DCF910C94CA0DEBE5C6
:10092000EC0FE33040F4F0E0E65AFE4F808190E0B7
:10093000CF910C949D22E8E5EC0FE73150F4F0E004
:10094000EE0FFF1FE45DFE4F80819181CF910C94EB
:10095000B322CD3E30F08C2F0E943B14CF910C94EB
:100960000D15CF910895882389F19CEF980F913A46
:1009700040F4682F80910401909105010E946A2340
:100980000DC090E2980F983058F4877091E001C044
:10099000990F8A95EAF7892F0E94810D0C94CA0D50
:1009A0009BE5980F933020F480E090E00C949D221A
:1009B00098E5980F973120F480E090E00C94B322F2
:1009C0008D3E20F00E9496140C940D1508951F93EF
:1009D000CF93DF93182FEB010E945D04209741F025
:1009E0008FE99FE00197F1F700C000002197F6CF53
:1009F000812FDF91CF911F910C94B304893319F0AB
:100A000060E070E002C060E570E00C94E7048823C9
:100A100021F00E947B0D0C94CA0D0895882321F0CB
:100A20000E94810D0C94CA0D0895CF92DF92EF922F
:100A3000FF920F931F93CF93DF937C01062FC72F55
:100A4000FC01D281158112951F700E94500D8823E0
:100A500099F0DD2389F08C2F807F803421F080E2B3
:100A6000800F883048F082E00E941A0E0E94500DDC
:100A700091E0D82ED92601C0D12CCC2EC2948FE083
:100A8000C8228C2D90E0FC01EA5AFF4F0C94CA2B2F
:100A90008C2F807FCF70882311F0C295C07FDD231B
:100AA00099F0CC2309F48DC180E2800F883010F0DA
:100AB000011104C08C2F0E947B0D03C08C2F0E945B
:100AC0008B0D0E94CA0D7DC1802F0E94B304CC23E0
:100AD00009F49CC180E2800F883010F0011104C03D
:100AE0008C2F0E94810D03C08C2F0E94910D0E94BB
:100AF000CA0D8CC18C2F807FCF70803211F0C295CF
:100B0000C07F002319F00130C9F022C0DD2371F04D
:100B1000112341F0113031F40E94AB0D8C2B0E9457
:100B2000B30D74C10E94AB0D8C2B1DC0112319F0A5
:100B3000113009F46BC10E94C00D25C0DD2321F0E6
:100B4000163008F063C10EC0153008F05FC11BC03D
:100B5000DD2361F0112331F0F701858180FF31C180
:100B60008F7085838C2F0E94070550C1112359F087
:100B7000093309F037C1FFEF27EE83E0F150204041
:100B80008040E1F72DC18C2F0E940E053FC18C2FB4
:100B900086958695837019F0813061F037C1DD2329
:100BA00021F0802F9C2F937002C080E090E00E9483
:100BB0009D2234C1DD2321F0802F9C2F937002C031
:100BC00080E090E00E94B32229C1802FDD2319F03C
:100BD0000E943B1402C00E9496140E940D151EC173
:100BE0008C2F837009F045C0D11114C1402F42955C
:100BF00046954770440F440F602F6F70862F90E02A
:100C0000A0E0B0E0042E04C0880F991FAA1FBB1FEC
:100C10000A94D2F704FF10C00FE010E020E030E0AB
:100C200004C0000F111F221F331F4A95D2F70095F1
:100C300010952095309503C000E010E09801C6950E
:100C4000C695C370BC01CD01602B712B822B932BF9
:100C5000C23049F058F4C13019F00E940908DAC0D6
:100C60000E94F707D7C00E941B08D4C00E94F50756
:100C7000D1C0DD2319F08C2F817001C086958823A7
:100C800009F4C8C0402F429546954770440F440F61
:100C9000602F6F70862F90E0A0E0B0E0042E04C0BB
:100CA000880F991FAA1FBB1F0A94D2F704FF10C018
:100CB0000FE010E020E030E004C0000F111F221F01
:100CC000331F4A95D2F7009510952095309503C0B3
:100CD00000E010E09801C695C695C370BC01CD0137
:100CE000602B712B822B932BC23049F058F4C1300A
:100CF00019F00E94CE088EC00E94BC088BC00E94D2
:100D0000E00888C00E942F0885C0CF70DD2339F02D
:100D10008C2F0E945508802F0E9407057BC0802FD2
:100D20000E940E058C2F0E94760874C0023F01F1CC
:100D300028F4003F41F0013FA1F03FC0033FF9F02C
:100D4000043F39F13AC0DD2341F0153008F05EC0B0
:100D50008C2F8F710E949B0859C0163008F056C026
:100D6000F7CFDD2339F08C2F8F710E9455084EC0CC
:100D7000DD23C9F38C2F8F710E94760847C0DD23D5
:100D800029F08C2F8F710E94400840C00E943B08C0
:100D90003DC0DD2349F0CF718C2F0E94550863E0E0
:100DA0008C2F0E94FF0D32C081E00E941A0E12307B
:100DB00068F182E00E941A0E29C0DD2331F0112370
:100DC00091F2802F0E945D0421C0112399F2093312
:100DD00049F49FEFE7EEF3E09150E040F040E1F797
:100DE00000C00000802F0E94B30410C04C2F4F7031
:100DF000602FC7010E94E90F0E94BA090FC04C2F53
:100E00004F70602FC7010E94EC0F08C088EF8C0D57
:100E1000843020F40E9469220E940404DD20C9F07D
:100E20000E944C0D80FD15C0F70112820E94460DF4
:100E30000E945508C7010E944A070E94460DDF9193
:100E4000CF911F910F91FF90EF90DF90CF900C9476
:100E50007608DF91CF911F910F91FF90EF90DF9077
:100E6000CF9008950F931F93CF93DF93EC01688188
:100E700079818A810E9497098C010E94F2080E9460
:100E8000E307B801CE010E941505DF91CF911F91B4
:100E90000F910895CF93DF93EC01988189812B8185
:100EA0003C81232B31F08F3F31F481E09F3F19F4D7
:100EB00003C081E001C080E080FD19C0CE010E9426
:100EC0008F0381110CC00E94500D882381F08A810C
:100ED000882369F082E0DF91CF910C941A0ECE0145
:100EE0000E943207CE01DF91CF910C946A03DF910B
:100EF000CF91089580E090E00E949D2280E090E0F4
:100F00000E94B3220E94980D0E94A80D0E94CA0D53
:100F10000E943E160C940D158091040190910501DC
:100F20000E9475230C947A070E94880D0C948C07FC
:100F3000E92FE295EF704E2F50E0FA013297EE3034
:100F4000F105B0F4EA59FF4F0C94CA2B803F91F0A1
:100F500018F4883E68F40EC0843F51F40BC0883EFC
:100F600048F0813F29F406C093FB882780F9089553
:100F700080E0089581E00895FC01808191810E94C4
:100F80008C090E9498070895CF93DF9300D000D07A
:100F90001F92CDB7DEB70F900F900F900F900F906C
:100FA000DF91CF910895CF93DF9300D000D000D090
:100FB000CDB7DEB726960FB6F894DEBF0FBECDBF15
:100FC000DF91CF910895089508950C94E4070C944F
:100FD000E5070E94E7076093070270930802809379
:100FE000090290930A020C947A070C94E9070F9374
:100FF0001F9300910702109108022091090230917D
:101000000A02602B712B822B932B1F910F910C9452
:10101000E9070F931F930091070210910802209196
:10102000090230910A0260237123822393231F91C6
:101030000F910C94E9070F931F93009107021091F1
:1010400008022091090230910A0260277127822745
:1010500093271F910F910C94E9070C94E4070E94C9
:101060002D0860930302709304028093050290930D
:1010700006020C947A0760E070E0CB010C942F0814
:101080000F931F9341E050E060E070E08A019B0104
:1010900004C0000F111F221F331F8A95D2F7C90108
:1010A000B8011F910F910C942F080F931F9341E0EB
:1010B00050E060E070E004C0440F551F661F771FCA
:1010C0008A95D2F78091030290910402A0910502C3
:1010D000B09106028A019B01082B192B2A2B3B2B6E
:1010E000C901B8011F910F910C942F080F931F9302
:1010F00041E050E060E070E004C0440F551F661FFF
:10110000771F8A95D2F7409550956095709580919C
:10111000030290910402A0910502B09106028A0197
:101120009B01082319232A233B23C901B8011F91DE
:101130000F910C942F080F931F9341E050E060E053
:1011400070E004C0440F551F661F771F8A95D2F7C1
:101150008091030290910402A0910502B0910602D1
:101160008A019B01082719272A273B27C901B801B3
:101170001F910F910C942F080F931F93009103025E
:10118000109104022091050230910602602B712B10
:10119000822B932B1F910F910C942F080F931F9369
:1011A0000091030210910402209105023091060281
:1011B00060237123822393231F910F910C942F0896
:1011C0000F931F93009103021091040220910502D6
:1011D0003091060260277127822793271F910F9174
:1011E0000C942F0808952FE0929F800D1124E82F72
:1011F000E695E695E695877051E001C0550F8A9512
:10120000EAF785E0E89FF0011124EF52FE4F20E05D
:1012100030E070E04081CB01022E02C096958795A8
:101220000A94E2F78170819584278523842781932E
:101230002F5F3F4F2530310569F708952FE0929FCA
:10124000800D1124682F669566956695982F977086
:1012500085E0689FB001112440E050E080E0FB0190
:10126000E40FF51FEF52FE4F208130E0092E02C03F
:10127000369527950A94E2F721703327042E01C092
:10128000220F0A94EAF7822B4F5F5F4F45305105DA
:1012900031F70895BF92CF92DF92EF92FF920F93B2
:1012A0001F93CF93DF938C01C0900302D090040270
:1012B000E0900502F09006028091070290910802EA
:1012C000A0910902B0910A02C82AD92AEA2AFB2A67
:1012D000CFE1D0E0D701C6010C2E04C0B695A7958A
:1012E000979587950A94D2F780FD04C0219790F7CF
:1012F000B12C07C0BC2EB8018C2F0E94241101977D
:10130000A9F38B2DDF91CF911F910F91FF90EF905B
:10131000DF90CF90BF900895CF93DF93EC010E94B0
:101320004A09BE010E942411DF91CF9108951F93B5
:10133000CF93DF93EB019091D001992321F0CB0162
:101340000E948C0913C0882349F0CB010E944A09EE
:10135000182F682FCE010E94F30804C0CB010E9411
:101360001E09182FBE01812F0E942411DF91CF91F9
:101370001F910895EF92FF920F931F93CF93DF93E6
:101380008C01892B09F46CC0F12CEE24E394E80164
:101390002196F8018491843740F4843008F051C0DC
:1013A000813081F0823019F15BC0853709F444C087
:1013B000A8F19CE7980F903708F052C08F770E94F1
:1013C000B30441C00E5F1F4FFE01849190E2980F5D
:1013D000983050F48770FE2D01C0FF0F8A95EAF710
:1013E0008F2F0E949B0D14C00E945D042DC00E5FC4
:1013F0001F4FFE01849190E2980F983060F487703F
:10140000FE2D01C0FF0F8A95EAF78F2F0E94A10DD4
:101410000E94CA0D19C00E94B30416C00E5F1F4F70
:10142000FE01C491CC2381F08FE99FE00197F1F791
:1014300000C00000C150F6CF0E5F1F4FFE01F490B8
:1014400003C00E945D048E018F2D882309F49FCF75
:10145000EFE9FFE03197F1F700C000008150F5CFD0
:10146000DF91CF911F910F91FF90EF9008951F93FF
:10147000CF93DF93C0910B0216E080910C02C81746
:1014800099F0D0E01C9FF0011D9FF00D1124E35F47
:10149000FD4F4081518162817381848195810E94D9
:1014A000D3072196C770E9CFDF91CF911F9108959F
:1014B00040913D0250913E0260913F027091400286
:1014C00080914102909142020C94D3070F931F9395
:1014D000CF93DF938091420282958F7009F05DC0B7
:1014E00080913F02882309F458C080910B0210912B
:1014F0000C0260913D0270913E02C0914002D09179
:10150000410291E06F3F09F090E0292F06E081173A
:1015100009F443C0209721F07F3F21F030E003C061
:1015200031E001C0322F90E030FD34C0089FF0015F
:10153000099FF00D1124DF01A35FBD4F11963C916F
:101540001197371327C03C91361324C012963C9153
:10155000129731111FC013964D915C9114974C1B3B
:101560005D0B483C5105B0F4809142028F70806160
:1015700080934202EE5EFD4F80818F708061808398
:101580008DE392E00E944A07DF91CF911F910F9166
:101590000C94370A01968770BACFDF91CF911F91D3
:1015A0000F9108959F92AF92BF92CF92DF92EF92E8
:1015B000FF920F931F93CF93DF93CDB7DEB7619761
:1015C0000FB6F894DEBF0FBECDBF8C0185E0F801E9
:1015D000DE011D9601900D928A95E1F7F801E280F7
:1015E00090913D0260913E02209140023091410273
:1015F0002115310531F06F3F31F481E09F3F19F43F
:1016000003C081E001C080E0F82FF1709F2E80FDC3
:101610003FC1F80140815181A380B4808DE3C82E81
:1016200082E0D82EF0903F02F501E21BF30BFF2081
:1016300009F4D9C080914202E83CF10508F095C058
:10164000282F207F09F052C0561313C0491311C030
:10165000FE2CE1100EC08F708061809342020E94C8
:10166000580AC6010E944A0780914202F801858308
:101670004CC1AB2831F05F3F31F481E04F3F19F4AA
:1016800003C081E001C080E080FD03C081E08E25C1
:1016900002C080E090E0F82FF170FF2E80FF1CC0A8
:1016A00080910B0220910C0236E0821709F40BC1E5
:1016B00090E0389FF001399FF00D1124E35FFD4F5A
:1016C0006181561306C06081461303C06281E61231
:1016D00003C001968770E9CFFE2CEE2009F415C1F6
:1016E0008091420281608093420254C0561306C02A
:1016F000491304C0E11002C0F80199C0C8010E945A
:10170000BC07882361F1EE2051F120914202822F23
:1017100082958F7090E0029774F080913D029091D5
:101720003E0298878F831986BB86AA862C87CE01B6
:1017300007960E944A0786E0F801ADE3B2E0019007
:101740000D928A95E1F70E94660A0E94580A0AC023
:10175000561711F1C8010E94BC0781112CC0C801A5
:101760000E944A07FF24F394D0C0282F207F81F7DE
:101770007A2DB98AA88A6E2D89890E94C4078DE3C3
:1017800092E00E944A0786E0F60111928A95E9F7F5
:101790000E94580AF12CB9C04913DCCFE110DACF0E
:1017A000F8018583C8010E944A0786E0F60111927C
:1017B0008A95E9F7AAC0EE2091F220914202822F89
:1017C00082958F7090E002970CF4B5CF80913D0226
:1017D00090913E029A8389831B82BD82AC822E83C4
:1017E000CE010196A6CFE83CF10508F044C0FE2CDE
:1017F000EE2009F4B4CF561330C049132EC0209107
:10180000420220FD21C0822F82958F70482F50E028
:1018100041155105C9F0F80125834F30510541F0BC
:101820008F5F982F9295907F822F8F70892B858361
:10183000C8010E944A0786E0F801ADE3B2E00190DA
:101840000D928A95E1F73CC086E0F801ADE3B2E085
:1018500001900D928A95E1F758C0C8010E94BC071B
:10186000811169CF80914202816080934202C80158
:101870000E944A074AC07A2DB98AA88A6E2D8989A2
:101880000E94C40786E0F60111928A95E9F718C014
:10189000EE2009F464CFC8010E94BC07F82E88230B
:1018A00009F45DCF86E0F801ADE3B2E001900D925E
:1018B0008A95E1F78DE392E00E9457040E94660A40
:1018C0000E94580A22C04D875E878D859E850E94A2
:1018D0008C09292F22952F70223028F49F7039F01F
:1018E000811105C00BC0243028F49F7049F4805E3C
:1018F000883020F0C8010E944A079F2CF92C05C0AF
:10190000F8019581907F99F7F9CF8F2D61960FB6E9
:10191000F894DEBF0FBECDBFDF91CF911F910F9125
:10192000FF90EF90DF90CF90BF90AF909F90089581
:101930001F93CF93DF93CDB7DEB72C970FB6F894F4
:10194000DEBF0FBECDBF4F83588769877A878B87ED
:101950009C87CE0107960E94D20A8823D1F09F81EE
:1019600088852A853B85232B31F08F3F31F481E038
:101970009F3F19F403C081E001C080E080FD47C0B3
:101980004F81588569857A858B859C850E94D30710
:101990003EC086E0FE013796DE01119601900D9261
:1019A0008A95E1F7FF81E8856A857B856115710578
:1019B00031F0EF3F31F481E0FF3F19F403C081E0E3
:1019C00001C080E080FD23C020910C0230E0C901FD
:1019D00001968770992740910B0250E08417950774
:1019E000F1F1F983EA837D836C8396E0929FD001C5
:1019F000939FB00D1124A35FBD4FFE01319601905E
:101A00000D929A95E1F780930C020E94370A16E036
:101A100080910B0290910C02891771F1189FC001FF
:101A20001124835F9D4F0E94D20A882329F1E091FF
:101A30000B021E9FF0011124E35FFD4F4081518195
:101A400062817381848195810E94D30780910B020A
:101A500090E001968770992780930B02D9CF0E945E
:101A6000940710920C0210920B02EDE3F2E086E074
:101A7000DF011D928A95E9F72C960FB6F894DEBF28
:101A80000FBECDBFDF91CF911F910895809143028A
:101A90008595859585950895809143028770089571
:101AA00090914302977081E009F480E0089590914D
:101AB0005B0492FB222720F9281751F080FB92F952
:101AC00090935B0480915A0490915B040C94610E96
:101AD000089580915B0482FB882780F991E0892733
:101AE0000C94570D81E00C94570D80E00C94570D29
:101AF00080916702089590916702892B8093670215
:101B000008958095909167028923809367020895D4
:101B100010926702089590916602892B8093660265
:101B200008958095909166028923809366020895B6
:101B300010926602089590916502892B8093650248
:101B40000895809590916502892380936502089598
:101B500010926502089580914402089508950C94AE
:101B6000AE0D0C94AF0D90915B0492FD08C0909166
:101B70004402981721F0809344020C94B10D08950B
:101B800080914402882329F01092440280E00C9452
:101B9000B10D0895E0910401F09105018091670273
:101BA0008083E0910401F0910501908180916602AB
:101BB000892B8083E0910401F0910501908180914F
:101BC0006502892B808380914402882381F0E09113
:101BD0000401F09105019081892B8083809104019B
:101BE000909105010E94C92281110E94C00D80912F
:101BF0000401909105010C9475220C94AE0D909106
:101C00005B0492FD10C098E0899F90011124262B5F
:101C1000209343020E945508809143028595859543
:101C200085950C94FD0D0C9455081092430280E0AC
:101C30000C94FD0D209143028095822380934302F2
:101C4000982F977041F430E0482F082E000C550B68
:101C50002417350721F490915B0492FF07C0859506
:101C6000859585950E9476080C94150E08956FEF62
:101C70007FEF80E090E00C94A92C80E090E00E943F
:101C8000852C21E0893E9E4F09F020E0822F0895A7
:101C900082E090E00C94772C83E090E00C94772C19
:101CA000CF9384E090E00E94772CC82F82E290E0EE
:101CB0000E94772C2C2F30E0A901582BCA01CF911C
:101CC0000895CF93C92F682F84E090E00E948B2C59
:101CD0006C2F82E290E0CF910C948B2CAB01BC0175
:101CE0008FE090E00C949D2CAB01BC0183E190E06F
:101CF0000C949D2C60E070E0CB010C94740E60E0BD
:101D000070E0CB010E946E0E0C947A0E69EE7EEFAD
:101D100080E090E00E94A92C60E082E090E00E94C8
:101D20008B2C60E083E090E00E948B2C10920702E5
:101D3000109208021092090210920A0260E084E0F8
:101D400090E00E948B2C60E082E290E00E948B2C5D
:101D500060E085E090E00E948B2C60E086E090E0FF
:101D60000E948B2C6FEF87E090E00E948B2C40E06C
:101D700050E0BA0188E090E00E949D2C60E08DE088
:101D800090E00E948B2C40E050E0BA0188E190E0A6
:101D90000E949D2C60E087E190E00E948B2C40E047
:101DA00050E0BA018CE190E00E949D2C60E070E070
:101DB00080E290E00E94A92C40E050E0BA0188E166
:101DC00090E00E949D2C0C947F0E0C94860E682F40
:101DD0008EE090E00C948B2C0E9426246093770276
:101DE000709378028093790290937A0260937302E1
:101DF000709374028093750290937602089585B76C
:101E0000806885BF85B7806885BF089581E00895A3
:101E10000C94060F08950C940A0F0C940A0F0C945E
:101E20000D0F0C940A0F0C94110F0C940A0F0E94C2
:101E3000FF0E80E092E10E948B240E94150F0C940B
:101E4000130F0E940B0F0C940A0F0E9411240E9482
:101E500015130E94861E0E94A41C0C940F0F6F92F3
:101E60007F928F929F92AF92BF92CF92DF92EF922A
:101E7000FF920F931F93CF93DF93CDB7DEB72A97CF
:101E80000FB6F894DEBF0FBECDBF0E94281381119C
:101E90000E94EC0E39E6832E32E0932E00E010E033
:101EA000C02E802F0E9441125C01F401619071905C
:101EB0004F016826792661147104B1F40F5F1F4F3A
:101EC0000530110569F78FEF89838A831B820E9491
:101ED0001A248160782F9D838C8349815A816B817C
:101EE0008D810E940D043AC080917B0281FD0E9489
:101EF0004A12D12CEE24E394F12CC3018E219F21B0
:101F0000892B29F10E94080F8823A9F0DE82CF8255
:101F1000AE20BF2081E0AB2809F480E088870E94D2
:101F20001A248160782F9A8789874E815F8168851E
:101F30008A850E940D04000F111FF801E759FD4F1B
:101F400080819181E826F926F182E08207C0D3944E
:101F5000EE0CFF1CFFE0DF12D0CFB0CF0E94E81CD8
:101F60000E9400200E942B150E9469229091680215
:101F70008917D1F00E946922809368022A960FB6D1
:101F8000F894DEBF0FBECDBFDF91CF911F910F91AF
:101F9000FF90EF90DF90CF90BF90AF909F908F9089
:101FA0007F906F900C9404042A960FB6F894DEBFCD
:101FB0000FBECDBFDF91CF911F910F91FF90EF909A
:101FC000DF90CF90BF90AF909F908F907F906F9059
:101FD000089580E090E0089508952BE4829FC00169
:101FE0001124FC012FE0729FE00DF11D1124E60F7A
:101FF000F11DEE0FFF1FE450FF4F8591949108955E
:10200000880F991FFC01E85DFD4F8591949108951B
:10201000CF93DF930E942911EC01811520E59207EF
:1020200008F03FC0811540E4940708F0D2C0883E14
:10203000910500F5803E910508F002C1883A9105AE
:1020400070F4853A910508F0A6C08130910509F435
:102050009FC008F4F2C0049708F0F2C0EEC08F3BB6
:10206000910508F4A1C0803C910508F4E6C0805CAD
:102070009109A5C0811550E2950760F4C11581E072
:10208000D80708F0DDC0CD3ED10508F4D6C0CE019A
:102090009065D7C0811520E3920708F093C09F7028
:1020A0008EC0811545E5940708F046C0811554E5BA
:1020B000950708F0A6C0C11582E5D80718F5C11527
:1020C00021E5D20708F088C0CE01F4E09695879507
:1020D000FA95E1F7282F23703C2F337081E090E0D0
:1020E00002C0880F991F3A95E2F79C68922B2C2F1B
:1020F0002F702695269540E2249F90011124822B73
:10210000932B9FC09E01237033279C2F9695969505
:10211000C115D34508F065C041E050E002C0440F4E
:10212000551F2A95E2F780E2989F90011124CA0179
:10213000822B932B9C6885C0811559E5950798F4EF
:10214000C11588E5D80708F061C0C11526E5D2079A
:1021500008F073C08C2F0E94BD118F7190E0982FF2
:10216000882790626EC081154AE5940708F453C031
:1021700090568115904208F060C08D2F8F710E949B
:10218000BD119E01332730628F71A901582B53C0B6
:1021900081E090E056C0855AC82FD0E0C557DE4F89
:1021A000888190E090644DC0885AC82FD0E0CC0F51
:1021B000DD1FC35ADE4F88819981946442C00E941A
:1021C00000103FC09927D3FF02C0986C3AC0906CB2
:1021D00038C09F70906A35C09C2F8827816F906AA5
:1021E00030C041E050E002C0440F551F2A95E2F78D
:1021F00080E2989F90011124CA01822B932B9A6848
:1022000020C0982F8827846F906A1BC09C2F882736
:10221000806F906A16C08F700E94BD119E0194E07D
:10222000369527959A95E1F72F7030E0322F2227C7
:102230003069A901482BCA0104C080E090E001C0C8
:10224000CE01DF91CF9108950E94ED0F0E940810FA
:1022500008958238910569F1B0F48133910509F44C
:102260006DC048F48932910509F463C08A32910542
:1022700009F469C008958533910509F455C089337F
:102280009105B9F00895833E910569F138F4803ED7
:102290009105B1F0823E910509F10895863E9105C0
:1022A000A9F1873E9105B9F1843E910509F064C01A
:1022B00023C020915A0420FD4FC021FD4DC0089538
:1022C00080915A0480FD44C080915B0480FF44C02B
:1022D00080915A0484FD42C083EE4DC080915A041F
:1022E00082FF38C0F5CF80915A0482FD33C08091BF
:1022F0005B0480FD31C0ECCF80915B0481FF32C074
:1023000080915A0484FD2AC087EE35C080915A041A
:1023100083FF26C0F5CF80915A0483FD21C08091B0
:102320005B0481FD1FC0ECCF80915A0485FD1CC069
:102330001DC080915A0485FD19C016C080915A04B1
:1023400086FD16C017C080915A0486FD13C010C0C8
:1023500089E311C082EE0FC080EE0DC080E00BC09B
:1023600086EE09C084EE07C089E205C085E303C09C
:102370008AE201C081E390E0089590915A0492FFAF
:102380000DC0282F2871283019F4877F846006C07B
:10239000282F2471243011F48B7F886093FF0DC0A7
:1023A000282F2871283119F4877E846106C0282FD0
:1023B0002471243111F48B7E886120915B0420FF0D
:1023C0000DC0382F3871383019F4877F816006C00E
:1023D000382F3171313011F48E7F886021FF0DC0AC
:1023E000282F2871283119F4877E816106C0282F93
:1023F0002171213111F48E7E886194FD877E0895CC
:1024000080E008950C94370E0E9428132FEF86E782
:1024100091E0215080409040E1F700C000000E9410
:10242000281380E00E94411280FF04C00E94021223
:102430000C94672408950C9404120E943D0E81119F
:1024400002C00E94E50E0E94480E80937B020E940B
:10245000500E90935B0480935A040E941B120E94BA
:102460004C0E682F70E080E090E00E94F5076091CC
:1024700003027091040280910502909106020C946F
:102480002D08E82FF0E0EE0FFF1FEA59FB4F808187
:1024900091810895089580EA8A95F1F7089500C022
:1024A00008950C944B1208950C9453120C945412EA
:1024B0000C9453120C945812F894E82FE295EF7094
:1024C000F0E031A1282F2F7081E090E001C0880F4B
:1024D0002A95EAF7982F9095932391A392A1892B9F
:1024E00082A3789408950F931F93CF93DF93CEE840
:1024F000D1E089918F3F11F00E945C1281E0CD39CB
:10250000D807B9F7CDE9D1E002EA11E089918F3F10
:1025100011F00E945C120C171D07C1F7DF91CF91DB
:102520001F910F910895CF92DF92FF920F931F9307
:10253000CF93DF93062F10E002571E4FD8012C9146
:102540002F3F09F46AC0C62FD92FF82EF894E22F36
:10255000E295EF70F0E031A12F70CC24C394D12C20
:10256000C60101C0880F2A95EAF7932F982B91A3F3
:1025700092A18095892382A378940E944F1296019C
:102580000C2E02C0220F331F0A94E2F7B9016095A6
:1025900070959DE9C92E91E0D92EEF2DFD2FAF0149
:1025A000465F5F4FD0E0D601FD906D01BFEFFB1697
:1025B000C9F08F2D82958F7090E0DC0190968C9100
:1025C00090E0BF2DBF7002C095958795BA95E2F750
:1025D00080FD08C080819181822B932B9183808321
:1025E000D1E006C0808191818623972391838083E7
:1025F0003296E417F507B9F6F80180818F3F11F0A4
:102600000E945C126D2F8C2FDF91CF911F910F9143
:10261000FF90DF90CF900C945112DF91CF911F91DA
:102620000F91FF90DF90CF9008950E947312ECE518
:10263000F4E0A6E6B4E0119211921D921D9284E09E
:10264000E636F807C1F785E00E9473130C94750312
:10265000FF920F931F93CF93DF93CDB7DEB72A97E7
:102660000FB6F894DEBF0FBECDBF8E010F5F1F4FB8
:102670008AE0F80111928A95E9F7F12C6F2DC801D3
:102680000E949312F394FFE0FF12F8CF4AE050E06B
:10269000B8018CE594E00E946A2CFF24F394009723
:1026A00009F4F12C892B41F08AE0F801ACE5B4E0A3
:1026B00001900D928A95E1F72F2D45E066E674E0D2
:1026C0008CE594E00E9474130E947D038F2D2A965E
:1026D0000FB6F894DEBF0FBECDBFDF91CF911F9133
:1026E0000F91FF9008950895FF920F931F93CF933A
:1026F000DF93F82E092F162FD72FC42F222349F04E
:1027000081E080937E020E941A2490937D02809340
:102710007C0280917E028823D9F080917C02909186
:102720007D020E943224059798F0EF2DF02FA12F03
:10273000BD2F80E090E04C2F50E08417950734F4D3
:10274000219131912D933D930196F7CF10927E0206
:10275000DF91CF911F910F91FF9008950E948723E1
:102760000E9401260E941A260E942C260E94210FF8
:10277000FBCF8091850280FF0BC060910B0185E04B
:10278000689FB001112475956795759567952BC065
:1027900081FF09C060910B0185E0689FB0011124A1
:1027A0007595679520C082FF07C060910B0185E099
:1027B000689FB001112417C0909184029923D1F031
:1027C00060910A01961788F720910B0185E0289FF8
:1027D00090011124929FA001939F500D112470E04D
:1027E000CA010E94942B6038710540F4611571058F
:1027F00019F406C065E070E0862F08958FE708950C
:1028000081E008958091850280FF08C060910701F2
:1028100070E0759567957595679521C081FF06C035
:102820006091070170E07595679519C082FF04C03B
:102830006091070170E010C090918302992399F094
:10284000609106019617A0F780910701899FC0014A
:10285000112470E00E94942B6038710540F46115DA
:10286000710519F406C061E070E0862F08958FE7C6
:10287000089581E008958D3E21F40E94B913819559
:1028800004C08E3E29F40E94B913809389020895F2
:102890008F3E21F40E94B913819504C0803F29F432
:1028A0000E94B913809388020895893F19F40E9409
:1028B000021405C08A3F31F40E940214819580936E
:1028C0008A0208958B3F21F40E940214819504C06E
:1028D0008C3F29F40E94021480938B0208959FE09C
:1028E000980F983078F421E030E0A90102C0440F3D
:1028F000551F9A95E2F7CA0190918702892B809320
:10290000870208958D3F21F48091850281600BC07C
:102910008E3F21F480918502826005C08F3F29F4AB
:102920008091850284608093850208958D3E39F4FC
:102930009091890297FF35C01092890259C08E3E4E
:1029400029F4909189021916BCF32BC0909188024A
:102950008F3E29F497FF25C01092880249C0803F1E
:1029600019F41916CCF31DC090918A02893F29F4FD
:102970001916BCF410928A023BC08A3F19F497FFE3
:1029800010C0F8CF8B3F39F490918B0297FF09C0AC
:1029900010928B022DC08C3F21F490918B0219165E
:1029A000BCF39FE0980F983080F421E030E0A9015B
:1029B00002C0440F551F9A95E2F7CA018095909185
:1029C000870289238093870213C08D3F21F4809171
:1029D00085028E7F0BC08E3F21F4809185028D7F12
:1029E00005C08F3F29F4809185028B7F80938502FB
:1029F00080918802811106C080918902811102C0F4
:102A00001092840280918A02811106C080918B020B
:102A1000811102C01092830208950E941A2420910D
:102A20008802211104C020918902222321F0909371
:102A300082028093810220918A02211104C0209198
:102A40008B02222321F09093800280937F0286E8FC
:102A500092E00C948F22EF92FF920F931F93CF93EB
:102A6000DF9300D000D000D0CDB7DEB786E0E6E837
:102A7000F2E0DE01119601900D928A95E1F7E09067
:102A80008802F090890200918A0210918B021092C4
:102A900088021092890210928A0210928B02E11031
:102AA00003C0FF2009F45DC08091810290918202F1
:102AB0000E943224AC0190918402992339F0209134
:102AC0000C0130E02417350758F04BC020910D0160
:102AD0008AE0289F900111242417350718F041C07F
:102AE0009F3F19F09F5F90938402EE2061F00E9457
:102AF000B9131E1414F09FEF01C091E0989F902D20
:102B0000112490938802FF2061F00E94B9131F14D2
:102B100014F09FEF01C091E0989F902D11249093A5
:102B20008902309188023323E1F020918902222327
:102B3000C1F045EB3403C0011124992319F090939F
:102B4000880203C081E08093880235EB2303C00133
:102B50001124992319F09093890203C081E0809396
:102B60008902011103C0112309F45DC080917F0225
:102B7000909180020E943224AC01909183029923AB
:102B800039F02091080130E02417350758F04BC088
:102B9000209109018AE0289F90011124241735070C
:102BA00018F041C09F3F19F09F5F9093830200236C
:102BB00061F00E940214101614F09FEF01C091E022
:102BC000989F902D112490938A02112361F00E9406
:102BD0000214111614F09FEF01C091E0989F902D00
:102BE000112490938B0230918A023323E1F02091DB
:102BF0008B022223C1F045EB3403C0011124992339
:102C000019F090938A0203C081E080938A0235EB29
:102C10002303C0011124992319F090938B0203C060
:102C200081E080938B028091880281110BC080919A
:102C30008902811107C080918A02811103C08091AD
:102C40008B0281110E940D15EB82FC820D831E8385
:102C500086E0FE013196A6E8B2E001900D928A95D9
:102C6000E1F726960FB6F894DEBF0FBECDBFDF9119
:102C7000CF911F910F91FF90EF900895E6E8F2E059
:102C800086E0DF011D928A95E9F710928402109286
:102C90008302109285020895EF92FF920F931F9383
:102CA000CF93DF938B01682F11110AC0442329F0C1
:102CB000E82FF0E0EE5BFC4F6491762F862F75C015
:102CC000212F30E0E82FF0E0442321F0EE5BFC4FB1
:102CD000E491F0E046E0049FC0011124CFEFD0E082
:102CE000BE010E94802B4BEA4603C001479F900D16
:102CF0001124800F911D800F911D982F990F890F1E
:102D0000AE01421B530B4E9FD0014F9FB00D5E9FF3
:102D1000B00D11249B2F189FA0011124452F55277A
:102D20008E01041B150B0E9FA0010F9F500D1E9FBF
:102D3000500D11247E01E81AF108E29E8001E39E05
:102D4000100DF29E100D1124212F3327C21BD30B1F
:102D5000CE9F9001CF9F300DDE9F300D1124623049
:102D60007105A9F048F46115710569F061307105CC
:102D7000C9F48B2F752F0DC06430710581F058F0A8
:102D80006630710579F47E2F8B2F932F0DC0832F22
:102D90007B2F9E2F09C08E2F7B2F952F05C08E2F46
:102DA000732F02C07E2F852F692FDF91CF911F9146
:102DB0000F91FF90EF90089541E00E944C16089506
:102DC00008950E94DC160895CF93DF93762FE901D2
:102DD000682F842F0E94E116798368838A83DF91AC
:102DE000CF910895413A08F040EA0C94E41680919E
:102DF0007004282F269530E02115310519F48170D3
:102E0000826005C02B32310524F081708465809387
:102E1000700480917304813A18F080EA80937304FF
:102E2000089588E090E00C947F2CCF92DF92EF928F
:102E3000FF926B017C010E94F716B701A60188E0A2
:102E400090E0FF90EF90DF90CF900C949D2CE0E706
:102E5000F4E083E0808311828FEF828380EA8383B2
:102E6000148260817181828193810C941517809105
:102E7000700480FF02C08695089580E008959091C7
:102E80007404933018F49F5F90937404882351F076
:102E90006091700470917104809172049091730438
:102EA0000C941517089581E00C943F1790917404C9
:102EB000992319F0915090937404882351F06091F4
:102EC00070047091710480917204909173040C9459
:102ED0001517089581E00C94561770E00C9411209A
:102EE000609112018091700480FF0AC080911101ED
:102EF00023E0829FC00111248B589B4F0C946D17C7
:102F00008091130190911401891780F7E82FF0E068
:102F10009F01220F331FE20FF31FEB58FB4F11826B
:102F2000108212828F5FF0CF9091700490FF16C0D4
:102F30009091130120911401921770F4E92FF0E0A1
:102F4000DF01AA0FBB1FEA0FFB1FEB58FB4F81836A
:102F5000608342839F5FF0CF0C9470170895CF93E6
:102F6000DF9300D01F92CDB7DEB79091700490FF31
:102F70000AC09E012F5F3F4F0E94F2164B8169816C
:102F80008A810E9494170F900F900F90DF91CF913C
:102F90000895CF93DF93EC01EC81F0E0E35CFD4F0B
:102FA0004491E0E7F4E0628181810E94AF178C8157
:102FB0008F5F8C83DF91CF910895CF93DF93EC01E6
:102FC000E0E7F4E0438162818C810E94AF178C813D
:102FD0008F5F8C83DF91CF9108950F931F93CF93D1
:102FE000DF9300D01F92CDB7DEB78C0180918C02A9
:102FF00081110AC09E012F5F3F4F40EA6FEF0E9490
:10300000F2168A8180938C02F8018481813051F01C
:1030100028F0823061F440918C020AC080918C02C9
:1030200040E007C060918C0240E080E003C040E0D7
:1030300080E060E00E949417F801848190E001969E
:1030400063E070E00E94942B84830F900F900F90A8
:10305000DF91CF911F910F910895AF92BF92CF92C0
:10306000DF92EF92FF920F931F93CF93DF9300D0E5
:103070001F92CDB7DEB7182FF62E042FE22E9091B7
:10308000700490FF6DC0E92FE695AE2FB0E0AE550D
:10309000BE4F8C91809328049E7F923061F49E01F4
:1030A0002F5F3F4F812F0E94F2164B8169818A81E9
:1030B0000E94941743C0823019F4009173043EC0FB
:1030C000863019F41091710439C08930D9F38931EF
:1030D000A9F5E9518E2F8170D82EE695F0E0E35CDA
:1030E000FC4FA590B490C12CBB2460911501C6166D
:1030F00018F52C2D30E0A29EC001A39E900DB29E2B
:10310000900D112470E00E94802B812FD11002C0FD
:10311000860F01C0861B90911301290F311DA90153
:10312000440F551F240F351F2B583B4F402F6F2D39
:103130000E94F216C394D9CF0E94701710937104A5
:10314000F092720400937304EE2051F060917004C9
:103150007091710480917204909173040E9415170C
:103160000F900F900F90DF91CF911F910F91FF90D3
:10317000EF90DF90CF90BF90AF900895E0E7F4E03C
:103180009181282F4381628188E0890F0C942D184A
:1031900081E00C94BE18E0E7F4E09181282F438190
:1031A000628188EF890F0C942D1881E00C94CB1864
:1031B000E0E7F4E0628128E0620F08F46FEF282F67
:1031C000438181810C942D1881E00C94D818E0E79C
:1031D000F4E0628128E0621B08F460E0282F43815C
:1031E00081810C942D1881E00C94E718E0E7F4E05D
:1031F000438128E0420F08F44FEF282F628181813C
:103200000C942D1881E00C94F618E0E7F4E043816B
:1032100028E0421B08F440E0282F628181810C9451
:103220002D1881E00C94051920E00C942D18FF92C4
:103230000F931F93CF93DF93EC01F12C0FEF10E06E
:1032400060911501F616F0F4809113012F2D30E0F6
:10325000280F311DC901880F991F280F391F2B58BE
:103260003B4F70E0C8010E94942B962F8C814091B7
:10327000730460917204F99E800D11240E94F2166D
:10328000F394DECF0E9470179A818C8190FF02C068
:103290008F5F01C081508C83DF91CF911F910F917F
:1032A000FF900895AF92BF92CF92DF92EF92FF927C
:1032B0000F931F93CF93DF93FC01828180FF02C0A5
:1032C0000FEF01C001E010E040E5A42E8091150150
:1032D000181708F043C080911301C12ED12CE601CC
:1032E000C80FD11DCE01880F991FC80FD91FCB5809
:1032F000DB4F198218821A8234E0E32EF12CB12CB4
:1033000080918E028B0D81352CF06A2D0E94722BDC
:10331000892F05C087FF03C090911501890F082EE2
:10332000000C990BC816D90691F4809173048E9DF8
:10333000A0018F9D500D11245595479555954795A2
:103340009E0160917204809171040E94F216B00E89
:10335000F1E0EF1AF108A1F61F5FB8CF0E947017D5
:1033600080918E02013031F4811102C080911501EB
:10337000815007C090E001966091150170E00E94B5
:10338000942B80938E02DF91CF911F910F91FF902C
:10339000EF90DF90CF90BF90AF900895CF93809142
:1033A000130190911401891770F4E82FF0E09F0148
:1033B000220F331FE20FF31FEB58FB4F11821082D5
:1033C00012828F5FF0CFC0E060911501C617C0F583
:1033D000EC2FF0E070E0CF010E94942B20911301BC
:1033E000820F20918D02022E000C330B90E0E21729
:1033F000F307CCF020911001022E000C330B2E1796
:103400003F078CF09C01220F331F820F931F9C01FA
:103410002B583B4F4091730460917204809171046A
:103420000E94F2160BC0FC01EE0FFF1F8E0F9F1FB4
:10343000FC01EB58FB4F118210821282CF5FC4CF88
:103440000E94701720910F0180918D02820F80934E
:103450008D0290911001920F9093100119165CF457
:10346000082E000C990B4091150150E04150510974
:10347000841795071CF0219520930F01CF91089593
:103480008F929F92AF92BF92CF92DF92EF92FF9274
:103490000F931F93CF93DF938C01FC014481C42FC2
:1034A000D0E09E01DE010E94D82B9B01AC010E945E
:1034B000EE2B6B017C01E0E2F0E0EC1BFD0BA5E5DF
:1034C000B0E09B01AC010E94EE2B4B015C019F011F
:1034D000DF010E94D02B9B01AC010E94F92B9B01C4
:1034E000AC012C0D3D1D4E1D5F1DC501B4010E9498
:1034F000A82BC22FD22F2A3228F4F3E02F9F90015D
:1035000011240DC025E530E02C1B3109C901880FBD
:10351000991F280F391F37FF02C02F5F3F4F359586
:103520002795C22FC095F12C85E5E82EED1A8091E4
:103530001501F816C8F4F1FC02C08E2D01C08D2FC4
:10354000909113012F2D30E0290F311DA901440F57
:10355000551F240F351F2B583B4F4C2F6091720481
:103560000E94F216F394E3CF0E947017F801848151
:10357000811102C091E003C0803219F49FEF909353
:103580000E0190910E01890FF8018483DF91CF9194
:103590001F910F91FF90EF90DF90CF90BF90AF9071
:1035A0009F908F9008950F931F93CF93DF93EC011B
:1035B00000E010E080911501282F30E0021713077A
:1035C00024F5909113019801290F311DA901440F91
:1035D000551F240F351F2B583B4F869590E04C818B
:1035E000081719071CF4442331F002C0411103C02D
:1035F0004091730401C040E06091720480917104B5
:103600000E94F2160F5F1F4FD5CF0E9470178C815A
:1036100090E00196817099278C83DF91CF911F9163
:103620000F9108957F928F929F92AF92BF92CF9207
:10363000DF92EF92FF920F931F93CF93DF93FC01E2
:103640008280748081E08483EDE3F2E09490ECEB7F
:10365000F2E0E491A12CF5E0BF2ECC24CA94D12C49
:10366000E9190E2F10E080911501A81608F0A2C0EC
:10367000EA2CF12C22E0281568F0BE9CF001BF9CDA
:10368000F00D1124E157FD4F8091710480838091EA
:103690007204818371100AC0BE9CF001BF9CF00DC2
:1036A0001124E157FD4F138212826AC0BE9CE001D3
:1036B000BF9CD00D1124C157DD4F8B818823F9F0B9
:1036C00081508B832FEF829FC00111246C8170E0A9
:1036D0000E94802BFB01FF27E35CFD4F8491E82FC4
:1036E000E9192FEFE29FC0011124B8010E94802B3D
:1036F00080917304689FB00111247A8341C00E94B5
:103700004D2C209173042695215830E0A901440FD7
:10371000551F322F2227240F351F232F33278217BF
:10372000930774F582E0881588F40E944D2CB60149
:103730000E94942B88830E944D2C20917204269520
:10374000622F70E00E94942B280F2983BE9CF00109
:10375000BF9CF00D1124E157FD4F1282809173043C
:10376000843120F0893C18F088EC01C084E1BE9CD3
:10377000F001BF9CF00D1124E157FD4F848383833A
:10378000809113019701280F311DC901880F991FDE
:10379000280F391F2B583B4FBE9CF001BF9CF00DEA
:1037A0001124E157FD4F4281618180810E94F21610
:1037B000A39459CFDF91CF911F910F91FF90EF907C
:1037C000DF90CF90BF90AF909F908F907F900C94A0
:1037D0007017E0E7F4E080818E7F808360817181E3
:1037E000828193810E941517109229042FEF80E7A0
:1037F00092E0215080409040E1F700C000000C941E
:103800007017E0E7F4E080818E7F808310922904B6
:103810002FEF80E792E0215080409040E1F700C018
:1038200000000C94701710922904809126048111D5
:103830000AC081E080932604809170048170809397
:1038400025040C94011C089560917004669570E045
:103850004BE050E086E191E00E945D2C892B19F449
:1038600081E0809329040E941A249093200480937D
:103870001F0408959091700490FF35C091708111DC
:1038800002C0926006C08B3210F0946502C0880FAF
:10389000982B90937004662351F06091700470919E
:1038A000710480917204909173040E9415176091C5
:1038B0007004669570E04BE050E086E191E00E9474
:1038C0005D2C892B19F01092290402C00E94241C3F
:1038D00081E080932204409173046091720480918E
:1038E00071040C9414190895682F909170049695A2
:1038F00081E0890F8B3208F081E00C943A1C81E062
:103900000C94741C682F9091700496958FEF890F1A
:1039100009F48AE20C943A1C81E00C94821C61E068
:103920000C943A1CE0E7F4E0808181608083869506
:103930000C948F1C8091700480FD0C94E91B0C94F6
:10394000921C60E00C943A1C8091270481112EC0D7
:103950000E943D0E811104C00E94E50E0E942717AF
:103960000E94111760937004709371048093720425
:10397000909373046E7F61F40E9427170E941117C1
:103980006093700470937104809372049093730435
:103990000E94F716109229048091700480FF03C0E2
:1039A00086950E94A11C81E0809327040895E0E79A
:1039B000F4E080818160808386950C94A11C109234
:1039C00026048091250481110E94D71C0C94241C8C
:1039D0000F931F93CF93DF9380912904882309F4D9
:1039E00095C080912804E0917004E695E81BE0936F
:1039F0002104823049F4F0E0E75CFD4FE491CE2FE2
:103A0000D0E009EC17E159C0863049F4F0E0EA5CF7
:103A1000FD4FE491CE2FD0E00DED17E14EC089307F
:103A200051F4E695F0E0ED5CFD4FE491CE2FD0E04F
:103A300007E119E142C08F3051F4E695F0E0E05D16
:103A4000FD4FE491CE2FD0E002E519E136C085317B
:103A500049F4F0E0E35DFD4FE491CE2FD0E00EECB1
:103A600019E12BC08831D9F0833239F4EBE2F2E06E
:103A7000C591D4910DEE17E120C08432A9F08532B2
:103A8000C1F48E2F63E00E94662BE92FF0E0E85D21
:103A9000FD4FE491CE2FD0E002E11BE10EC0C8E261
:103AA000D0E000E41AE109C0C4EFD1E003ED1AE16F
:103AB00004C0C0EDD7E000EE16E180912204882317
:103AC00061F0109222040E941A24909320048093A3
:103AD0001F0410922404109223040E941A24E091DF
:103AE0001F04F09120048E1B9F0B8F3F9F4770F4A3
:103AF000EC0FFD1FF0932004E0931F048FE194E08E
:103B0000F801DF91CF911F910F910994DF91CF912F
:103B10001F910F910895882311F0FA0101C0FB0154
:103B20000994CF93DF93C82FD62F0E9437178C1795
:103B300040F00E9437178D1720F4DF91CF910C943D
:103B40007F1C8C2FDF91CF910C948F1C1F93CF93F0
:103B5000DF93FB011281112309F4C1C0EC010E9423
:103B6000780D8272CD3CFCE5DF0709F49BC008F0BC
:103B700043C0C73CECE5DE0709F480C0D8F4C43C80
:103B80009CE5D90709F46DC038F4C33CDC4509F065
:103B9000A7C00E949A1C6BC0C53C9CE5D90709F4DC
:103BA00068C0C63CDC4509F09BC045ED58E168ECB7
:103BB00078E15BC0CA3CFCE5DF0709F469C070F43A
:103BC000C83CECE5DE0709F45EC0C93CDC4509F001
:103BD00087C044EE58E163EF78E147C0CB3C9CE5F9
:103BE000D90709F45AC0CC3CDC4509F079C04AE653
:103BF00057E163E577E139C0C23DFCE5DF0709F431
:103C00005EC098F4CF3C9CE5D90709F452C008F493
:103C10004EC0C03DFCE5DF0709F44EC0C13DDC45A8
:103C200009F05EC06EE089E057C0C53D9CE5D9074C
:103C300009F44BC058F4C33DFCE5DF0709F442C06A
:103C4000C43DDC4509F04CC088E143C0C63D9CE55D
:103C5000D907F1F1CE35DD4509F042C06AE285E2CF
:103C60003BC04CE85CE16FE77CE10E948B1D10E0FB
:103C700037C04FE75CE16CE87CE1F7CF48EC58E1F6
:103C800065ED78E1F2CF43EF58E164EE78E1EDCFF6
:103C900041E159E162E079E1E8CF42E059E161E1D7
:103CA00079E1E3CF43E557E16AE677E1DECF81E0F2
:103CB00010C065E082E010C068E086E00DC064E1FD
:103CC0008FE00AC067E185E107C062E289E104C0D4
:103CD00083E20E948F1CCBCF0E94911DC8CF11E0C0
:103CE000812FDF91CF911F91089586E090E00C9491
:103CF000772C682F86E090E00C948B2C80916505E2
:103D000084708962809365050C94791E0E943D0E33
:103D1000811104C00E94E50E0E947E1E0E94751E45
:103D200080936505282F26952695269530E0263028
:103D3000310524F087708862809365058091650560
:103D400080FF04C086958695869501C080E00C941E
:103D5000971F20916505822F869586958695482F19
:103D600050E04530510554F48F5F982F990F990F0B
:103D7000990F822F8770892B809365058091650547
:103D80008160809365050E94791E80916505869506
:103D9000869586950C94971F80916505982F96952A
:103DA00096959695A1F0915E990F990F990F87704E
:103DB000892B80936505887F91E009F490E08091DC
:103DC000650590FB80F9809365050E94791E8091BE
:103DD00065058695869586950C94971F8091650557
:103DE00080FD13C0816080936505813019F489E0FE
:103DF00080936505809165050E94791E8091650517
:103E00008695869586950C94971F089580916505F3
:103E100080FF08C08E7F809365050E94791E80E038
:103E20000C94971F08958091650580FD0C94061FE2
:103E30000C94EE1E90916505892F86958695869542
:103E40008F5F8F719770863038F4880F880F880FD6
:103E5000892B8093650502C0909365058091650567
:103E6000887F91E009F490E08091650590FB80F9EE
:103E7000809365050E94791E8091650586958695DB
:103E800086950C94971F863008F085E09091650523
:103E90009770282F220F220F220F922B90936505E7
:103EA000987F21E009F420E09091650520FB90F9CE
:103EB000909365050C94971F0E94431F80916505A0
:103EC0000C94791E9C01FB018281882349F12E3BD1
:103ED000FCE53F07C9F040F42C3BECE53E0769F0F8
:103EE0002D3B3C4561F00895203C9CE5390791F05D
:103EF00070F0213C3C4589F0089585E001C080E0E8
:103F00000E945C1F80E008950E94CC1EFBCF0E949F
:103F1000A91EF8CF0E94131FF5CF0E941A1FF2CFDF
:103F200081E00895269A2E9808952E980895CF92AC
:103F3000DF92EF92FF92CF93C82F863050F4811119
:103F400009C0809180008F7D809380000E94951F22
:103F500006C0C5E0809180008062809380002C2F95
:103F600030E0AFEFBFEF0E94D82B25E030E040E01B
:103F700050E00E94A82BB42FA32F922F8827492FFF
:103F80005A2F6B2F7727CA014C3724E1520728F4A8
:103F900069E070E00E94802B29C0DB01CA018A50D1
:103FA000974DAF4FBF4F6627782F892F9A2F25EF58
:103FB00038E241E050E00E94A82B69017A01CA0171
:103FC000B9010E94562B9B01AC01C701B6010E94AA
:103FD000562BBB27A92F982F872F009721E0A207E8
:103FE000B10511F0BC0102C06FEF7FEF70938B0041
:103FF00060938A00CF91FF90EF90DF90CF9008956B
:1040000008950E94921F82E28093800089E180934C
:1040100081008FEF9FEF90938700809386000C9430
:10402000861E6A9A2EB12B7F3EB134604FB7F8944A
:10403000FC01CB01880F991F680F791F6E0F7F1F3E
:10404000E617F70789F0819198E03EB9000000C0BB
:1040500087FF2EB9880F000000C000C000C02EB935
:1040600000C09A9591F7ECCF4FBF8FE594E0019790
:10407000F1F700C0000008950F931F93CF93DF93D3
:10408000C42FD22FFC0182818823C9F040932C04D5
:104090000E941A2490932B0480932A0480E28C0FB0
:1040A000883008F057C0C77081E001C0880FCA95FA
:1040B000EAF7DF91CF911F910F910C940705809142
:1040C0002C04481330C080912A0490912B040E9444
:1040D0003224883C910538F510E21D0FCD17B9F058
:1040E00080E28C0F883040F4C77081E001C0880FF7
:1040F000CA95EAF70E940E05183028F581E09D2F39
:10410000977001C0880F9A95EAF70E940705802FE3
:104110000E94FE041830F0F4D77081E001C0880FCF
:10412000DA95EAF70AC080E28C0F883098F4C770FD
:1041300081E001C0880FCA95EAF7DF91CF911F9106
:104140000F910C940E05802FDF91CF911F910F914D
:104150000C94FE04DF91CF911F910F9108950F935E
:104160009C01CB01243F4CE5340731F188F4293D13
:10417000FCE53F07D9F02A3D4CE5340779F1283DAD
:104180003C45A9F506E221EE41EE68ED7CE52BC049
:10419000263FFCE53F07E1F0A8F0273F3C4539F515
:1041A00007E225EE46EE67EF7CE51DC007E225EE4F
:1041B00045EE69ED7CE517C006E221EE40EE64EFC6
:1041C0007CE511C007E225EE44EE65EF7CE50BC00F
:1041D00006E221EE42EE66EF7CE505C008E221E052
:1041E00045EE6AED7CE50E943C2080E008C0FC01C1
:1041F0008281882319F010922C0401C081E00F9174
:104200000895CF93DF93EC01FB018281882309F4A9
:1042100026C1C430FDE5DF0760F4CB3F9CE5D9073C
:1042200068F49E0122503C452431310508F018C144
:1042300005C0C236EDE5DE0709F012C10E94500E3E
:1042400090935B0480935A04C031FCE5DF0709F4C6
:10425000CAC008F041C0C8309CE5D90709F4A4C021
:10426000F0F4C430FCE5DF0709F48CC068F4C23018
:104270009CE5D90709F482C0C330DC4509F0E5C0EC
:1042800080915A048260DFC0C630FCE5DF0709F484
:1042900083C008F085C080915A048860D4C0CC30B7
:1042A0009CE5D90709F490C068F4CA30FCE5DF0743
:1042B00009F47EC008F084C00E94940780915A04DB
:1042C0008068C1C0CE309CE5D90709F481C008F0F0
:1042D00086C080915A0494C0CD3FFCE5DF0709F405
:1042E0007BC038F5C4319CE5D90709F49AC058F46D
:1042F000C231FCE5DF0709F47AC008F07EC0809186
:104300005A048F7BA0C0CB3F9CE5D907F1F108F0A0
:104310003FC0C531DC4509F098C080915A0482FB4A
:10432000222720F991E0922790FB82F990FB83F9F4
:104330008AC0C1308DE5D80709F467C050F4809178
:104340005B04CF3FECE5DE07C1F108F05BC08D7F79
:1043500065C0C3308DE5D80709F471C008F46DC09D
:10436000C236DD4509F071C080915A0484FB2227D2
:1043700020F991E0922790FB84F965C080915A045E
:10438000816061C080915A0416C080915B0416C0A0
:1043900080915B04826042C080915A04806153C066
:1043A00080915A0480624FC080915A0480644BC04F
:1043B00080915A048860846046C0826081602EC00B
:1043C00080915A048E7F3FC080915A048D7F3BC0FC
:1043D00080915A04877F37C080915B0414C080911C
:1043E0005A048F7E30C080915A048F7D2CC00E9469
:1043F000940780915A048F7726C080915A04877F52
:104400008B7F21C08D7F8E7F09C080915B04982FA8
:10441000909591708E7F892B90FB81F980935B043E
:1044200014C00E94940780915A0487FB222720F928
:1044300091E0922790FB87F906C081E001C080E0FF
:104440000E94E70E02C080935A0480915A04909112
:104450005B040E94610E0E94940780E001C081E02D
:10446000DF91CF910895CF93DF9386319C4541F53D
:10447000EB010E94780D982F8A81209104013091E0
:104480000501882379F09A7A81E009F480E080932D
:104490002D04911102C069E201C065E3C9010E94C7
:1044A0005F230AC080912D04811102C069E201C01E
:1044B00065E3C9010E946A230E94CA0D80E001C021
:1044C00081E0DF91CF91089590933304809332047B
:1044D0000895E0913204F0913304309721F0019077
:1044E000F081E02D099480E00895E0913204F0918C
:1044F0003304309799F020912B01222359F0209119
:104500005A0427FF07C0DC012C9111962C931197B8
:1045100025E02C930280F381E02D09940895E09129
:104520003204F0913304309739F022E0DC012C930F
:104530000480F581E02D0994089520913004309194
:1045400031042817390771F09093310480933004B7
:10455000E0913204F0913304309721F00680F78126
:10456000E02D0994089520912E0430912F042817EE
:10457000390771F090932F0480932E04E091320458
:10458000F0913304309721F00084F185E02D0994F7
:104590000895FC01329680912B01882331F080919F
:1045A0005A0487FF02C09EE101C096E080E091506E
:1045B00028F021912223D9F38F5FF9CF0895662344
:1045C00051F120912B012223E9F020915A0427FF79
:1045D00019C0462F4695469546954E31E0F46770D2
:1045E00021E030E002C0220F331F6A95E2F7FC01A0
:1045F000E40FF11D828190E02823392381E0232BF1
:1046000069F409C0FC01329608962191621729F0DD
:10461000E817F907D1F780E0089581E008959C013B
:10462000FC0132969FEF80E04191461789F09F3F51
:1046300019F4411101C0982F8F5F8630A9F79F3F71
:1046400039F0F901E90FF11D97FDFA95628308959C
:1046500008959C012A5F3F4FFC014281461301C02F
:104660001282019682179307B9F70895262F26958F
:10467000269526952E3168F4FC01E20FF11D677036
:1046800021E030E001C0220F6A95EAF78281282BF1
:1046900022830895262F2695269526952E3170F48F
:1046A000FC01E20FF11D677021E030E001C0220F34
:1046B0006A95EAF720958281282322830895209124
:1046C0002B01222329F020915A0427FD0C94362334
:1046D0000C940F2320912B01222329F020915A04BE
:1046E00027FD0C944A230C94292320912B01FC01D3
:1046F0003296222331F080915A0487FF02C08EE166
:1047000001C086E0DF011D928A95E9F708950895BA
:1047100008950C9488230C948823CF930E948B23B4
:104720000E9428130E948923C0E08C2F0E9441120E
:10473000892B29F4CF5FC530C1F780E001C081E04B
:10474000CF9108950C9488230C94A22380916E0538
:10475000843009F42EC00E94A42380E00E94971F99
:1047600080E00E9404040E94131C1092340420E490
:1047700088E190E00FB6F894A895809360000FBE92
:104780002093600083B7817F846083BF83B781609B
:1047900083BF7894889583B78E7F83BF0FB6F894D4
:1047A000A8958091600088618093600010926000FD
:1047B0000FBE08950C9488230E9494070E94861EC1
:1047C0000E9469220E9404040E94DF1C0C94DA23D8
:1047D0001F920F920FB60F9211248F939F93AF9356
:1047E000BF9380913404811113C08091660590912C
:1047F0006705A0916805B09169054196A11DB11D9D
:104800008093660590936705A0936805B09369054A
:10481000BF91AF919F918F910F900FBE0F901F90FE
:10482000189582E084BD93E095BD9AEF97BD809383
:104830006E0008952FB7F8948091660590916705F2
:10484000A0916805B09169052FBF08952FB7F8941E
:104850006091660570916705809168059091690582
:104860002FBF08959C014FB7F894809166059091F1
:104870006705A0916805B09169054FBF821B930B36
:10488000089578941F920F920FB60F9211248F9370
:104890009F93AF93BF938091660590916705A09118
:1048A0006805B09169050196A11DB11D809366054B
:1048B00090936705A0936805B0936905BF91AF9188
:1048C0009F918F910F900FBE0F901F90189581E0D0
:1048D0008093E00080E28093D8001092C9008FE1BD
:1048E0009EE40197F1F700C0000087E090EBDC0147
:1048F0008093770590937805A0937905B0937A0516
:104900009CE088E10FB6F894A895809360000FBEF4
:1049100090936000FFCF9093CF018093CE010895D4
:1049200080915804089590916E05943031F58093EC
:104930003504709337046093360482E08093E90075
:104940008FEF9091E800815095FD06C095ED9A9506
:10495000F1F700008111F5CF8091E80085FF0DC0CF
:1049600040E050E063E070E085E394E00E94B82608
:104970008091E8008E778093E8000895BC0184E080
:104980000C949324BC0183E00C94932422E02093A4
:10499000E9002FEF3091E800215035FD06C035EDDC
:1049A0003A95F1F700002111F5CF2091E80025FF9D
:1049B0000BC040E050E066E070E00E94B8268091B5
:1049C000E8008E778093E8000895CF93DF932091DD
:1049D0002B01222339F020915A0427FF03C060E203
:1049E00022E002C068E021E02093E9002FEF30913F
:1049F000E800215035FD06C035ED3A95F1F700008D
:104A00002111F5CF2091E80025FF1DC0EC01809118
:104A10002B01811105C040E050E068E070E003C068
:104A200070E040E050E0CE010E94B8268091E8009E
:104A30008E778093E80080E2FE01A8E3B4E0019065
:104A40000D928A95E1F7DF91CF91089580916D05E0
:104A5000811109C00E9449280E94A6288091E20085
:104A600084608093E200089510926D050895089582
:104A70000895089542E061EC81E00E94C22742E27D
:104A800061EC82E00C94C22780917005833009F4B8
:104A900060C030F4813071F0823009F499C008951B
:104AA0008A3009F485C08B3009F46BC0893009F075
:104AB000A7C020C080916F05813A09F0A1C0809104
:104AC000E800877F8093E8008091730590917405DA
:104AD000892B21F460E288E394E003C060E080E089
:104AE00090E070E00E9403278091E8008B7780932C
:104AF000E800089580916F05813209F081C08091AE
:104B0000730590917405029708F07AC08091E800CF
:104B1000877F8093E8008091E80082FD05C0809146
:104B20006E058111F8CF6CC02091F3008091F200E6
:104B300090E0922B029729F48091F1008B7F8130D5
:104B400021F48091F100809358048091E8008B77E4
:104B500053C080916F05813A09F052C0809173056E
:104B600090917405892B09F04BC08091E800877FF4
:104B70008093E8008091E80080FFFCCF80912B01BA
:104B800036C080916F058132D9F58091730590917F
:104B90007405892BA9F58091E800877F8093E80050
:104BA0000E94F7278091710580932B010C94940744
:104BB00080916F05813221F58091E800877F809395
:104BC000E8000E94F72780917205809359040895A8
:104BD00080916F05813AA1F48091E800877F8093EE
:104BE000E8008091E80080FFFCCF80915904809319
:104BF000F1008091E8008E778093E8000C94F7270D
:104C0000089584B7877F84BF0FB6F894A8958091E4
:104C10006000886180936000109260000FBE90E099
:104C200080E80FB6F89480936100909361000FBE06
:104C30000C94170F0E9449280E94A628E2EEF0E08B
:104C400080818460808378940E943B2B0E94250F92
:104C500081E291E00C94642280916E058530A9F484
:104C600080916E05853079F40E94A62380916C05B1
:104C70008823B1F30E948D23882391F30E94A226FA
:104C80000E949407EDCF0E94DC230C942F0F0C940C
:104C90004926292F332723303105C9F060F421300C
:104CA000310581F02230310509F044C08BE390E0FA
:104CB00020E734E043C021323105E1F022323105F2
:104CC00049F138C082E190E02BEA34E037C09927FF
:104CD0008130910549F028F0029761F5E2E4F4E0B3
:104CE00005C0ECE6F4E002C0E0E6F4E0849190E078
:104CF0009F0124C06115710541F061307105D1F447
:104D000089E090E02BE934E019C089E090E022E8E6
:104D100034E014C06115710541F06130710551F442
:104D200086EB90E02DEB34E009C080E490E023E7CF
:104D300035E004C080E090E020E030E0FA0131830B
:104D40002083089580E189BD82E189BD09B400FE18
:104D5000FDCF8091D8008F7D8093D8008091E000B6
:104D600082608093E0008091E00081FDFCCF089597
:104D7000CF92DF92EF92FF920F931F93CF93DF9327
:104D8000EC018B017A010E941628811133C0E114D5
:104D9000F10439F0F70180819181081B190BC80FCC
:104DA000D91FC12CD12C0115110519F18091E800F2
:104DB00085FD16C08091E8008E778093E800E114AD
:104DC000F10449F0F70180819181C80ED91ED1828A
:104DD000C08285E00FC00E941628882321F30AC0F4
:104DE00089918093F10001501109FFEFCF1ADF0A7A
:104DF000DACF80E0DF91CF911F910F91FF90EF907C
:104E0000DF90CF9008952091750530917605261793
:104E1000370748F06115710539F42091E8002E77C5
:104E20002093E80001C0B901FC0120E06115710583
:104E300079F180916E058823F1F18530F1F180914F
:104E4000E80083FD3CC08091E80082FD2EC0809187
:104E5000E80080FFEBCF2091F3008091F20090E01A
:104E6000922B6115710551F08830910538F421912C
:104E70002093F100615071090196F3CF21E008976A
:104E800009F020E08091E8008E778093E800CECF93
:104E90002111CFCF0AC080916E05882361F0853043
:104EA00061F08091E80083FD0AC08091E80082FFF4
:104EB000F2CF80E0089582E0089583E0089581E0D4
:104EC000089520917505309176052617370748F02B
:104ED0006115710539F42091E8002E772093E800E0
:104EE00001C0B901FC0120E06115710591F18091CB
:104EF0006E05882309F440C0853009F43FC08091D5
:104F0000E80083FD3DC08091E80082FD2FC08091C4
:104F1000E80080FFE9CF2091F3008091F20090E05B
:104F2000922B6115710559F08830910540F4249158
:104F30002093F1003196615071090196F2CF21E082
:104F4000089709F020E08091E8008E778093E800D0
:104F5000CBCF2111CCCF0AC080916E05882361F0A0
:104F6000853061F08091E80083FD0AC08091E800FF
:104F700082FFF2CF80E0089582E0089583E00895F3
:104F800081E00895982F973068F59093E90098177D
:104F900039F07091EC002091ED005091F00003C0C9
:104FA000242F762F50E021FD02C09F5FECCF30917F
:104FB000EB003E7F3093EB003091ED003D7F30936E
:104FC000ED003091EB0031603093EB007093EC001A
:104FD0002093ED005093F0002091EE0027FDE5CFE7
:104FE00080E008958F708093E90081E008958091BA
:104FF0006F0587FF11C08091E80082FD05C0809198
:105000006E058111F8CF11C08091E8008B770BC03D
:1050100080916E05882349F08091E80080FFF8CFE9
:105020008091E8008E778093E80008952091E40055
:105030003091E50095E64091EC00842F817040FFAF
:1050400023C08091E80080FD1DC080916E058823FB
:1050500099F0853099F08091EB0085FD11C0409169
:10506000E4005091E5002417350729F3915011F021
:105070009A01E1CF84E0089582E0089583E00895E5
:1050800081E0089580E008954091E80042FFDDCF7F
:1050900008950E94B7280E94BF28E0EEF0E08081CA
:1050A00081608083E8EDF0E080818F77808319BC98
:1050B000A7EDB0E08C918E7F8C9380818F7E808372
:1050C00010926D0508950F931F93CF93DF930E9465
:1050D000B7280E94BF28C8EDD0E088818F778883E9
:1050E00088818068888388818F7D888319BC10922D
:1050F0006E0510926A0510926C0510926B0500EE19
:1051000010E0F80180818B7F8083888181608883B3
:1051100042E060E080E00E94C227E1EEF0E08081A2
:105120008E7F8083E2EEF0E08081816080838081E9
:1051300088608083F80180818E7F80838881806190
:105140008883DF91CF911F910F910895E8EDF0E0F2
:1051500080818F7E8083E7EDF0E0808181608083B5
:1051600084E082BF81E080936D050C946328E8EDB4
:10517000F0E080818E7F80831092E200089510928B
:10518000DA001092E10008951F920F920FB60F926D
:1051900011242F933F934F935F936F937F938F933C
:1051A0009F93AF93BF93EF93FF938091E10082FFB2
:1051B0000BC08091E20082FF07C08091E1008B7FED
:1051C0008093E1000E943A2B8091DA0080FF1FC09B
:1051D0008091D80080FF1BC08091DA008E7F809381
:1051E000DA008091D90080FF0DC080E189BD82E1A5
:1051F00089BD09B400FEFDCF81E080936E050E9459
:10520000262505C019BC10926E050E943425809198
:10521000E10080FF19C08091E20080FF15C08091FD
:10522000E2008E7F8093E2008091E20080618093B3
:10523000E2008091D80080628093D80019BC85E09C
:1052400080936E050E9438258091E10084FF30C074
:105250008091E20084FF2CC080E189BD82E189BD9C
:1052600009B400FEFDCF8091D8008F7D8093D800D7
:105270008091E1008F7E8093E1008091E2008F7E3B
:105280008093E2008091E20081608093E20080914F
:105290006A05882311F084E007C08091E30087FD50
:1052A00002C081E001C083E080936E050E94392531
:1052B0008091E10083FF29C08091E20083FF25C037
:1052C0008091E100877F8093E10082E080936E050A
:1052D00010926A058091E1008E7F8093E1008091B9
:1052E000E2008E7F8093E2008091E20080618093F3
:1052F000E20042E060E080E00E94C2278091F0007E
:1053000088608093F0000E943725FF91EF91BF9154
:10531000AF919F918F917F916F915F914F913F914D
:105320002F910F900FBE0F901F9018951F920F9204
:105330000FB60F9211242F933F934F935F936F9368
:105340007F938F939F93AF93BF93CF93DF93EF930D
:10535000FF93C091E900CF708091EC00D82FD170FD
:1053600080FDD0E81092E9008091F000877F809363
:10537000F00078940E94DA291092E9008091F00000
:1053800088608093F000CD2BCF70C093E900FF912F
:10539000EF91DF91CF91BF91AF919F918F917F91CD
:1053A0006F915F914F913F912F910F900FBE0F9092
:1053B0001F9018951F93CF93DF93CDB7DEB7AA97B1
:1053C0000FB6F894DEBF0FBECDBFEFE6F5E08091DB
:1053D000F100819325E0E737F207C9F70E944425E1
:1053E0008091E80083FF2EC180916F059091700538
:1053F000492F50E04A30510508F024C1FA01EC5819
:10540000FF4F0C94CA2B803821F0823809F01AC162
:1054100008C080916B0590916C05992389F082609A
:105420000FC0809173058F70873008F00BC1809397
:10543000E9008091EB0085FB882780F91092E90054
:105440009091E800977F9093E8008093F10010928C
:10545000F100D1C0282F2D7F09F0F4C0882319F066
:10546000823061F0EFC080917105813009F0EAC0AF
:10547000933009F080E080936C052EC08091710517
:1054800081112AC0809173058F702FEF280F26306D
:1054900008F0D8C08093E9002091EB0020FF1CC0E9
:1054A000933021F48091EB00806214C09091EB0066
:1054B00090619093EB0021E030E0A90102C0440F1D
:1054C000551F8A95E2F74093EA001092EA00809116
:1054D000EB0088608093EB001092E9008091E80077
:1054E000877F8093E8000E94F727ACC08111AAC093
:1054F000109171051F778091E3008078812B809354
:10550000E3008091E800877F8093E8000E94F727FE
:105510008091E80080FFFCCF8091E3008068809359
:10552000E300111102C082E001C083E080936E05A8
:1055300089C08058823008F085C0809171059091B3
:1055400072058C3D53E0950779F583E08A838AE202
:1055500089834FB7F894DE01139620E03EE051E2D4
:10556000E32FF0E050935700E49120FF03C0E29551
:10557000EF703F5FEF708E2F90E0EA3010F0C7962B
:1055800001C0C0968D939D932F5F243149F74FBF83
:105590008091E800877F8093E8006AE270E0CE01A6
:1055A00001960E94032716C06091730570917405DF
:1055B000AE014F5F5F4F0E944726BC01892B09F463
:1055C00041C09091E800977F9093E80089819A818B
:1055D0000E9461278091E8008B778093E80032C0B9
:1055E000803881F58091E800877F8093E800809182
:1055F0006A058093F1008091E8008E7772CF811167
:1056000021C0809171059091720599270297D4F479
:105610008091E800877F8093E800809171058093F6
:105620006A050E94F72780916A05811106C0809162
:10563000E30087FD02C081E001C084E080936E0535
:105640000E943A258091E80083FF0AC08091E8001B
:10565000877F8093E8008091EB0080628093EB006D
:10566000AA960FB6F894DEBF0FBECDBFDF91CF91E3
:105670001F9108950895CF9380916E058823A1F01E
:10568000C091E900CF709091EC00892F817090FD5E
:1056900080E8C82B1092E9008091E80083FD0E9409
:1056A000DA29CF70C093E900CF910895DB018F9381
:1056B0009F930E94EE2BBF91AF91A29F800D911DF1
:1056C000A39F900DB29F900D11240895991B79E02E
:1056D00004C0991F961708F0961B881F7A95C9F782
:1056E0008095089587FB082E062687FD819567FD26
:1056F00061950E94662B0EF4919507FC81950895A3
:10570000AA1BBB1B51E107C0AA1FBB1FA617B707E7
:1057100010F0A61BB70B881F991F5A95A9F7809503
:105720009095BC01CD01089597FB072E16F40094C7
:1057300007D077FD09D00E94802B07FC05D03EF4EE
:10574000909581959F4F0895709561957F4F08952D
:10575000A1E21A2EAA1BBB1BFD010DC0AA1FBB1F75
:10576000EE1FFF1FA217B307E407F50720F0A21BE7
:10577000B30BE40BF50B661F771F881F991F1A9454
:1057800069F760957095809590959B01AC01BD017E
:10579000CF010895EE0FFF1F0590F491E02D0994BD
:1057A0000E94D82B332312F48A1B9B0B0C94E92BF9
:1057B000A29FB001B39FC001A39F700D811D112452
:1057C000911DB29F700D811D1124911D08950E949D
:1057D000D82BB7FF0895821B930B08950E94D82BF6
:1057E000A59F900DB49F900DA49F800D911D112435
:1057F0000895B7FF0C94EE2B0E94EE2B821B930BA7
:1058000008958F929F92AF92BF92CF92DF92EF92C4
:10581000FF92CF93DF93EC01688179818A819B812C
:10582000611571058105910521F464E279ED8BE53F
:1058300097E02DE133EF41E050E00E94BF2C490199
:105840005A019B01AC01A7EAB1E40E94EE2B6B0167
:105850007C01ACEEB4EFA50194010E94FC2BDC01AD
:10586000CB018C0D9D1DAE1DBF1DB7FF03C0019761
:10587000A109B04888839983AA83BB839F77DF916E
:10588000CF91FF90EF90DF90CF90BF90AF909F901F
:105890008F9008950E94012C089580E091E00E946D
:1058A000012C0895A0E0B0E08093000190930101E5
:1058B000A0930201B09303010895FC0141505040B0
:1058C00030F001900616D1F73197CF01089588275F
:1058D00099270895FB01DC0104C08D910190801986
:1058E00021F441505040C8F7881B990B0895F9994D
:1058F000FECF92BD81BDF89A992780B50895A6E1A3
:10590000B0E044E050E00C94B12CA8E1B0E042E0FB
:1059100050E00C94B12C262FF999FECF92BD81BD99
:10592000F89A019700B4021639F01FBA20BD0FB6DD
:10593000F894FA9AF99A0FBE08950396272F0E94B9
:105940008C2C0E948B2C252F0E948C2C242F0C94A5
:105950008C2C0196272F0E948C2C0C948B2CDC0114
:10596000CB01FC01F999FECF06C0F2BDE1BDF89A6A
:10597000319600B40D9241505040B8F70895052E6D
:1059800097FB1EF400940E94D62C57FD07D00E946E
:10599000A82B07FC03D04EF40C94D62C50954095C0
:1059A000309521953F4F4F4F5F4F089590958095CB
:1059B000709561957F4F8F4F9F4F0895F894FFCF5B
:1059C0000100000045022808641E140A321E01016D
:1059D00002005000505001191A1B1C1D1E1F2021CF
:1059E000229024E524C624C224BE2401E200E9005A
:1059F000EA00B500B600B700CD008301CC008A01F3
:105A00009201940121022302240225022602270288
:105A10002A02B300B4006F007000818283E200E9C3
:105A200000EA00B500B600B700CD008301CC008AC3
:105A30000192019401210223022402250226022759
:105A4000022A02B300B4006F00700081828390913B
:105A500092939594969734F7F6F5F4F1F03031324D
:105A60003337000102020202060606090909090984
:105A7000090F0F0F0F0F0F151515181919191919EF
:0E5A8000191919191923242525252525250076
:00000001FF
